:100000000C9434000C9449000C9449000C94490061
:100010000C9449000C9449000C9449000C9449003C
:100020000C9449000C9449000C9449000C947600FF
:100030000C9449000C9449000C9449000C9449001C
:100040000C9449000C9449000C9449000C9449000C
:100050000C9449000C9449000C9449000C944900FC
:100060000C9449000C94490011241FBECFEFD8E036
:10007000DEBFCDBF11E0A0E0B1E0E0E5F1E002C0FD
:1000800005900D92A230B107D9F70E9466000C943A
:10009000A6000C940000509A1BB808951092850099
:1000A000109284000895CF93DF93C82FD92F0E9418
:1000B0004E008CE080938100D0938900C09388002B
:1000C00082E080936F00DF91CF9108950E944B00F2
:1000D000789480EB9EEF0E945300809100019091F4
:1000E00001010097F1F780E090E008951F920F92D0
:1000F0000FB60F9211242F933F934F935F936F93FB
:100100007F938F939F93AF93BF93EF93FF93489BFE
:1001100009C01BB80E944E00E1E8F0E080818B7FAF
:10012000808303C0589A0E944E00FF91EF91BF91C7
:10013000AF919F918F917F916F915F914F913F917F
:100140002F910F900FBE0F901F901895F894FFCF2E
:020150000100AC
:00000001FF
