:100000000C9434000C9454000C9449000C94490056
:100010000C9449000C9449000C9449000C9449003C
:100020000C9449000C9449000C9449000C9449002C
:100030000C9449000C9449000C9449000C9449001C
:100040000C9449000C9449000C9449000C9449000C
:100050000C9449000C9449000C9449000C944900FC
:100060000C9449000C94490011241FBECFEFD8E036
:10007000DEBFCDBF11E0A0E0B1E0EAEFF0E002C0EA
:1000800005900D92A230B107D9F70E944B000C9455
:100090007B000C940000209AE9E6F0E08081836008
:1000A0008083E89A7894FFCF1F920F920FB60F9239
:1000B00011242F933F938F939F93809100019091F0
:1000C0000101892B11F0289A01C028982091000184
:1000D0003091010181E090E0821B930B909301012C
:1000E000809300019F918F913F912F910F900FBEB0
:0A00F0000F901F901895F894FFCFB1
:0200FA00010003
:00000001FF
