S016000054696D6572496E746572727570742E7372656340
S11300000C9434000C9449000C9449000C9449005D
S11300100C9449000C9449000C9449000C94490038
S11300200C9449000C9449000C9449000C94490028
S11300300C9449000C9466000C9449000C944900FB
S11300400C9449000C9449000C9449000C94490008
S11300500C9449000C9449000C9449000C944900F8
S11300600C9449000C94490011241FBECFEFD8E032
S1130070DEBFCDBF11E0A0E0B1E0E2E2F1E002C0FA
S113008005900D92A230B107D9F70E944B000C9451
S11300908F000C940000209A8DED809384008BE0F7
S11300A080938500E0E8F0E080818C7F8083E1E844
S11300B0F0E08081846080838081847E8083EFE6A9
S11300C0F0E08081816080837894FFCF1F920F924B
S11300D00FB60F9211242F933F938F939F93809188
S11300E0000190910101892B19F0289AB09802C05F
S11300F02898B098209100013091010181E090E0AE
S1130100821B930B90930101809300019F918F9127
S11301103F912F910F900FBE0F901F901895F89458
S1050120FFCF0B
S10501220100D6
S9030000FC
