S01C000055534152547472616E736D6974746572544553542E737265637C
S11300000C9434000C9409010C9446000C944600A2
S11300100C9446000C9446000C9446000C94460044
S11300200C9446000C9446000C9446000C94580022
S11300300C9446000C9446000C9446000C94460024
S11300400C9446000C9446000C9446000C94460014
S11300500C9446000C9446000C9446000C94460004
S11300600C9446000C94460011241FBECFEFD8E038
S1130070DEBFCDBF21E0A0E0B1E001C01D92A430FD
S1130080B207E1F70E9439010C943F010C9400007F
S11300901092C50087E68093C400E1ECF0E0808113
S11300A088608083E2ECF0E080818660808308953C
S11300B01F920F920FB60F9211248F93EF93FF9319
S11300C01092010110920001E1E8F0E080818B7F41
S11300D08083FF91EF918F910F900FBE0F901F902F
S11300E01895E89AE9E6F0E08081836080830895BA
S11300F0E0ECF0E0908195FFFDCF8093C600089579
S113010088E40E9478002FEF83EC99E0215080402E
S11301109040E1F700C0000085E40E9478002FEFD2
S113012083EC99E0215080409040E1F700C000004A
S11301308CE40E9478002FEF83EC99E021508040FA
S11301409040E1F700C000008CE40E9478002FEF9B
S113015083EC99E0215080409040E1F700C000001A
S11301608FE40E9478002FEF83EC99E021508040C7
S11301709040E1F700C0000081E20E9478000895F9
S113018087E50E9478002FEF83EC99E021508040AE
S11301909040E1F700C000008FE40E9478002FEF48
S11301A083EC99E0215080409040E1F700C00000CA
S11301B082E50E9478002FEF83EC99E02150804083
S11301C09040E1F700C000008CE40E9478002FEF1B
S11301D083EC99E0215080409040E1F700C000009A
S11301E084E40E9478002FEF83EC99E02150804052
S11301F09040E1F700C000000895809102019091C1
S11302000301019719F40E94800008950E94C00020
S113021008951F920F920FB60F9211242F933F93BC
S11302204F935F936F937F938F939F93AF93BF93FA
S1130230EF93FF93209102013091030181E090E05C
S1130240821B930B90930301809302010E94FD0093
S1130250FF91EF91BF91AF919F918F917F916F919A
S11302605F914F913F912F910F900FBE0F901F9070
S113027018950E9448000E9471007894FFCFF8946A
S1050280FFCFAA
S9030000FC
