S0250000437573746F6D44656C61795769746854696D6572496E746572727570742E737265632B
S11300000C9434000C9446000C9446000C94460066
S11300100C9446000C9446000C9446000C94460044
S11300200C9446000C9446000C9446000C948900F1
S11300300C9446000C9446000C9446000C94460024
S11300400C9446000C9446000C9446000C94460014
S11300500C9446000C9446000C9446000C94460004
S11300600C9446000C94460011241FBECFEFD8E038
S1130070DEBFCDBF21E0A0E0B1E001C01D92A430FD
S1130080B207E1F70E94A2000C94A7000C940000B0
S1130090209A0895E1E8F0E080818D6080838DE30B
S11300A08093890089E080938800EFE6F0E0808106
S11300B082608083109285001092840081E090E039
S11300C0909303018093020108950E944A00809155
S11300D00201909103010197D1F30895C1E0D0E0AA
S11300E08091000190910101892B21F4289A0E94AA
S11300F0650003C028980E946500809100019091DA
S113010001019E01281B390B30930101209300014A
S1130110E7CF1F920F920FB60F9211248F93EF9394
S1130120FF931092030110920201E1E8F0E0808154
S11301308A7F8083FF91EF918F910F900FBE0F9074
S11301401F90189578940E9448000E946E00F894BD
S1050150FFCFDB
S9030000FC
