:100000000C9434000C9449000C9449000C94490061
:100010000C9449000C9449000C9449000C9449003C
:100020000C9449000C9449000C9449000C94700005
:100030000C9449000C9449000C9449000C9449001C
:100040000C9449000C9449000C9449000C9449000C
:100050000C9449000C9449000C9449000C944900FC
:100060000C9449000C94490011241FBECFEFD8E036
:10007000DEBFCDBF11E0A0E0B1E0E6E3F1E002C0F9
:1000800005900D92A230B107D9F70E944B000C9455
:1000900099000C940000209AE1E8F0E080818F7EC6
:1000A0008083A0E8B0E08C918C7F8C938081886005
:1000B00080838081846080838C918C7F8C9310926C
:1000C00085001092840082EF8093890084E28093FF
:1000D0008800EFE6F0E08081826080837894FFCF33
:1000E0001F920F920FB60F9211242F933F938F936D
:1000F0009F938091000190910101892B19F0289A1A
:10010000B19802C02898B198209100013091010166
:1001100081E090E0821B930B90930101809300019A
:100120009F918F913F912F910F900FBE0F901F9035
:060130001895F894FFCFC2
:020136000100C6
:00000001FF
