:100780008316051085100511851186178312CD2B50
:10079000FF30A000FF30A100CD2BFD2300308500ED
:1007A000F723FD2301308500F723FD230230850068
:1007B000F723FD2303308500F723FD230430850054
:1007C000F723FD2305308500F723FD230630850040
:1007D000F723FD2307308500F723FD23083085002C
:1007E000F723FD2309308500F723FD23CD2BA00B34
:1007F000FA2B0800A10BFA2BF72B861FFD2B080004
:02400E00F93F78
:00000001FF
